:100000000C942A000C943F000C943F000C943F0089
:100010000C943F000C943F000C943F000C943F0064
:100020000C943F000C943F000C943F000C943F0054
:100030000C943F000C943F000C943F000C943F0044
:100040000C943F000C943F000C943F000C943F0034
:100050000C943F0011241FBECFE5D8E0DEBFCDBF1A
:1000600010E0A0E6B0E0E2EBF4E002C005900D92F3
:10007000AC37B107D9F70E94DB010C9457020C94FE
:1000800000004130A1F5813089F028F08230C9F0BC
:10009000833011F108952BB381E090E002C0880F06
:1000A000991F6A95E2F7822B8BBB089528B381E0F4
:1000B00090E002C0880F991F6A95E2F7822B88BBF7
:1000C000089525B381E090E002C0880F991F6A95DA
:1000D000E2F7822B85BB089522B381E090E002C055
:1000E000880F991F6A95E2F7822B82BB0895411110
:1000F00037C0813091F028F08230D9F0833029F177
:1001000008952BB381E090E002C0880F991F6A9593
:10011000E2F7809582238BBB089528B381E090E0BD
:1001200002C0880F991F6A95E2F78095822388BBE9
:10013000089525B381E090E002C0880F991F6A9569
:10014000E2F78095822385BB089522B381E090E099
:1001500002C0880F991F6A95E2F78095822382BBBF
:1001600008954130A1F5813089F028F08230C9F03E
:10017000833011F108952AB381E090E002C0880F26
:10018000991F6A95E2F7822B8ABB089527B381E015
:1001900090E002C0880F991F6A95E2F7822B87BB17
:1001A000089524B381E090E002C0880F991F6A95FA
:1001B000E2F7822B84BB089521B381E090E002C076
:1001C000880F991F6A95E2F7822B81BB0895411130
:1001D00037C0813091F028F08230D9F0833029F196
:1001E00008952AB381E090E002C0880F991F6A95B4
:1001F000E2F7809582238ABB089527B381E090E0DF
:1002000002C0880F991F6A95E2F78095822387BB09
:10021000089524B381E090E002C0880F991F6A9589
:10022000E2F78095822384BB089521B381E090E0BA
:1002300002C0880F991F6A95E2F78095822381BBDF
:100240000895813041F028F0823039F0833039F060
:1002500008956BBB089568BB089565BB089562BBA4
:100260000895813041F028F0823039F0833039F040
:1002700008956ABB089567BB089564BB089561BB88
:100280000895CF93C82F40E060E081E00E944100D4
:1002900040E061E081E00E9441006C2F82E00E941A
:1002A000210141E062E081E00E9441008DEE92E098
:1002B0000197F1F700C0000040E062E081E00E9499
:1002C0004100CF910895CF93C82F41E060E081E0D5
:1002D0000E94410040E061E081E00E9441006C2FFB
:1002E00082E00E94210141E062E081E00E94410041
:1002F0008DEE92E00197F1F700C0000040E062E06F
:1003000081E00E944100CF9108958FE097E201972C
:10031000F1F700C000008FE30E9441019DE09A9533
:10032000F1F700008CE00E9441018DE08A95F1F721
:10033000000081E00E94410183EF91E00197F1F715
:1003400000C0000086E00E9441018FE097E2019723
:10035000F1F700C000000895882329F0813011F4DE
:10036000605C01C060E080E8860F0E944101089552
:1003700081E00E94410183EF91E00197F1F700C015
:10038000000080E80E94410108950F931F93CF93CE
:10039000DF938C01C0E0D0E003C00E94630121968E
:1003A000F801EC0FFD1F80818111F7CFDF91CF9114
:1003B0001F910F9108950E942B026FEF82E00E941F
:1003C000310141E060E081E00E94B10041E061E084
:1003D00081E00E94B10041E062E081E00E94B10052
:1003E0000E94850180E00E9452028E36C9F40E946C
:1003F000B80160E080E00E94AC0180E690E00E94DD
:10040000C5018FEF0E9452020E9463012FEF80E727
:1004100092E0215080409040E1F700C00000E2CF20
:10042000883701F70E94B80160E080E00E94AC01CB
:1004300080E790E00E94C5018FEF0E9452020E9467
:1004400063012FEF80E792E0215080409040E1F778
:1004500000C00000C7CF40E065E081E00E94B1002D
:1004600041E066E081E00E94B10040E067E081E0A9
:100470000E94B10040E064E081E00E94B1008DB1D3
:100480008F778DB98DB180628DB98DB18F7E8DB929
:100490008DB1877F8DB98DB18B7F8DB98DB1806422
:1004A0008DB908958FB9779BFECF8FB10895F894D9
:0204B000FFCF7C
:1004B2002057656C636F6D6520555345523A200095
:0C04C2002042594520555345523A200075
:00000001FF
