:100000000C942A000C9447000C9447000C94470071
:100010000C9447000C9447000C9447000C94470044
:100020000C9447000C9447000C9447000C94470034
:100030000C9447000C9447000C9447000C94470024
:100040000C9447000C9447000C9447000C94470014
:100050000C94470011241FBECFE5D8E0DEBFCDBF12
:1000600010E0A0E6B0E0E0E2FBE002C005900D92F7
:10007000A43CB107D9F720E0A4ECB0E001C01D9288
:10008000A03DB207E1F70E941D040C948E050C946C
:1000900000004130A1F5813089F028F08230C9F0AC
:1000A000833011F108952BB381E090E002C0880FF6
:1000B000991F6A95E2F7822B8BBB089528B381E0E4
:1000C00090E002C0880F991F6A95E2F7822B88BBE7
:1000D000089525B381E090E002C0880F991F6A95CA
:1000E000E2F7822B85BB089522B381E090E002C045
:1000F000880F991F6A95E2F7822B82BB0895411100
:1001000037C0813091F028F08230D9F0833029F166
:1001100008952BB381E090E002C0880F991F6A9583
:10012000E2F7809582238BBB089528B381E090E0AD
:1001300002C0880F991F6A95E2F78095822388BBD9
:10014000089525B381E090E002C0880F991F6A9559
:10015000E2F78095822385BB089522B381E090E089
:1001600002C0880F991F6A95E2F78095822382BBAF
:1001700008954130A1F5813089F028F08230C9F02E
:10018000833011F108952AB381E090E002C0880F16
:10019000991F6A95E2F7822B8ABB089527B381E005
:1001A00090E002C0880F991F6A95E2F7822B87BB07
:1001B000089524B381E090E002C0880F991F6A95EA
:1001C000E2F7822B84BB089521B381E090E002C066
:1001D000880F991F6A95E2F7822B81BB0895411120
:1001E00037C0813091F028F08230D9F0833029F186
:1001F00008952AB381E090E002C0880F991F6A95A4
:10020000E2F7809582238ABB089527B381E090E0CE
:1002100002C0880F991F6A95E2F78095822387BBF9
:10022000089524B381E090E002C0880F991F6A9579
:10023000E2F78095822384BB089521B381E090E0AA
:1002400002C0880F991F6A95E2F78095822381BBCF
:100250000895813079F028F08230A9F08330E1F000
:1002600024C089B390E002C0959587956A95E2F71E
:100270008170089586B390E002C0959587956A9540
:10028000E2F78170089583B390E002C09595879559
:100290006A95E2F78170089580B390E002C0959569
:1002A00087956A95E2F7817008950895813041F04D
:1002B00028F0823039F0833039F008956BBB08950F
:1002C00068BB089565BB089562BB0895813041F015
:1002D00028F0823039F0833039F008956ABB0895F0
:1002E00067BB089564BB089561BB0895CF93DF9306
:1002F000D82FC62F0E94BC0160E081E50E94C60194
:100300008D2F0E94D5018C2F0E94D5010E94E701FC
:10031000DF91CF9108951F93CF93DF931F92CDB7B5
:10032000DEB7182F19820E94BC0160E081E50E94AF
:10033000C601812F0E94D5010E94BC0161E081E5C8
:100340000E94C601CE0101960E94DD010E94E701D4
:1003500089810F90DF91CF911F91089592E090B91C
:1003600091B19E7F91B991B19D7F91B9811182B96F
:1003700086B7846086BF089586B7806286BF86B7D9
:10038000806886BF06B607FEFDCF089590E0880F0F
:10039000991F862B83B986B78F7D86BF86B7806805
:1003A00086BF06B607FEFDCF089583B986B780687D
:1003B00086BF06B607FEFDCF0895FC0196B790688C
:1003C00096BF06B607FEFDCF83B18083089586B73A
:1003D000806186BF86B7806886BF0895CF93C82F97
:1003E00040E060E081E00E94490040E061E081E09F
:1003F0000E9449006C2F80E00E94560141E062E0BB
:1004000081E00E9449008FE697E10197F1F700C073
:10041000000040E062E081E00E944900CF91089531
:10042000CF93C82F41E060E081E00E94490040E0A6
:1004300061E081E00E9449006C2F80E00E9456013B
:1004400041E062E081E00E9449008FE697E1019778
:10045000F1F700C0000040E062E081E00E94490046
:10046000CF9108952FEF89EF90E021508040904088
:10047000E1F700C000008FE30E94EE012AE62A9512
:10048000F1F700C08CE00E94EE018AE68A95F1F750
:1004900000C081E00E94EE018FE99FE00197F1F733
:1004A00000C0000086E00E94EE019FEF29EF80E08F
:1004B000915020408040E1F700C00000089588235B
:1004C00029F0813011F4605C01C060E080E8860FA3
:1004D0000E94EE01089581E00E94EE018FE99FE005
:1004E0000197F1F700C0000080E80E94EE01089536
:1004F0000F931F93CF93DF938C01C0E0D0E003C034
:100500000E9410022196F801EC0FFD1F80818111DD
:10051000F7CFDF91CF911F910F910895CF93DF9384
:10052000CDB7DEB72A970FB6F894DEBF0FBECDBFAA
:100530004AE050E0BE016F5F7F4F0E944E05CE0142
:1005400001960E9478022A960FB6F894DEBF0FBE7D
:10055000CDBFDF91CF910895CF93C82F0E9415058D
:100560008093C5000E9419051092C400C130F1F4B7
:1005700019C08C2F0E948B019091C500891310C067
:100580002C2F30E0F901EA53FF4F8081981741F09A
:10059000F901EA53FF4F908381E08093C4003CC08F
:1005A000CF5F01C0C0E0C33020F336C0CC23A9F038
:1005B00018C0282F30E0F901EA53FF4F4081909195
:1005C000C500491308C081E08093C400F901EA53D3
:1005D000FF4F108221C08F5F01C080E0833048F35D
:1005E0001BC0C230C9F40E946B0281E690E00E94F9
:1005F00078028091600090E00E948E0260E081E0CD
:100600000E945F028EE690E00E9478020E9415052B
:100610008093C9000E941905CF9108951F93CF932D
:10062000DF936FEF80E00E94660141E060E081E0CF
:100630000E94B90041E061E081E00E94B90041E020
:1006400062E081E00E94B9000E94320280E00E94D4
:10065000AE0141E066E083E00E94B90041E067E05E
:1006600083E00E94B90040E062E083E00E94B900AC
:1006700040E063E083E00E94B9000E949C040E9475
:10068000D1040E94620441E064E083E00E94B9006A
:1006900041E065E083E00E94B90040E060E083E073
:1006A0000E94B90041E061E083E00E94B9000E942D
:1006B00006058FE790E00E94780260E081E00E94EA
:1006C0005F0285E890E00E94780210E011C0C12F1F
:1006D000D0E00E941505C353DF4F88830E9419059F
:1006E00088810E9410026881812F0E9476011F5F1D
:1006F000133068F30E946B02DF91CF911F91089530
:100700000E946B0282E990E00E94780241E067E07B
:1007100083E00E94490060E081E00E945F028FE96F
:1007200090E00E9478028091600090E00E948E022A
:100730002FEF80E792E0215080409040E1F700C029
:10074000000040E067E083E00E9449000895CF93F5
:10075000C82F0E946B028BEA90E00E94780241E071
:1007600066E083E00E944900C11127C080916000CB
:100770008F5F809360008AE50E94F5042FEF80E789
:1007800092E0215080409040E1F700C0000063E01B
:1007900083E00E9429018823D1F340E066E083E0F2
:1007A0000E94490080E00E94F50488E70E949704B7
:1007B0008091C5000E94970428C0C13031F5809116
:1007C00060008150809360008AE50E94C0042FEF92
:1007D00080E792E0215080409040E1F700C00000A7
:1007E00062E083E00E9429018823D1F340E066E0C3
:1007F00083E00E94490080E00E94C0048EE60E94CF
:1008000097048091C5000E94970460E081E00E94F7
:100810005F028FE990E00E9478028091600090E092
:100820000E948E022FEF80E792E02150804090409E
:10083000E1F700C00000CF9108950E940E0382E00E
:100840000E94AC028091C900883561F118F48E34A1
:1008500031F0F5CF8E3619F0883721F1F0CF809145
:100860006000811110C00E946B0286EB90E00E9434
:1008700078022FEF81EE94E0215080409040E1F724
:1008800000C00000DCCF81E00E94AC028091C40077
:10089000813019F40E94A703D2CF8111D0CF0E94DA
:1008A0008003CDCF80E00E94AC028091C4008130F3
:1008B00021F480E00E94A703C2CF8111C0CF0E9423
:1008C0008003BDCF41E065E081E00E94B90040E0D7
:1008D00066E081E00E94B90041E067E081E00E94AB
:1008E000B90041E064E081E00E94B90040E064E0CA
:1008F00081E00E9449008DB18F778DB98DB1806202
:100900008DB98DB180618DB98DB1877F8DB98DB174
:100910008B7F8DB98DB181608DB98DB18D7F8DB992
:100920008EB18E7F8EB98DB180648DB908958FB9E7
:10093000779BFECF8FB108958FB58F7B8FBD8FB51D
:1009400080688FBD8FB58E7F8FBD8FB582608FBD64
:100950008EB580618EBD8EB588608EBD8EB58E7F62
:100960008EBD8EB582608EBD8EB58B7F8EBD8FE1C4
:100970009EE497BD86BD87EE93E09BBD8ABD08953A
:10098000282F30E0A8EEB3E00E943F0524EB30E0D2
:1009900040E050E00E941D0529513C4F3BBD2ABD5F
:1009A00008958FB58F7E8FBD8FB580628FBD8FB557
:1009B0008E7F8FBD8FB582608FBD8EB580618EBDFD
:1009C0008EB588608EBD8EB58E7F8EBD8EB58260F1
:1009D0008EBD8EB58B7F8EBD8FE19EE497BD86BDAB
:1009E00087EE93E099BD88BD0895282F30E0A8EEEA
:1009F000B3E00E943F0524EB30E040E050E00E946D
:100A00001D0529513C4F39BD28BD08958AB18B7F02
:100A10008AB986E080BD10BC83E389B98AB1806160
:100A20008AB98AB188608AB908955F9BFECF8CB17C
:100A300008955D9BFECF8CB90895A1E21A2EAA1BE2
:100A4000BB1BFD010DC0AA1FBB1FEE1FFF1FA2177E
:100A5000B307E407F50720F0A21BB30BE40BF50B7B
:100A6000661F771F881F991F1A9469F76095709504
:100A7000809590959B01AC01BD01CF010895A29F87
:100A8000B001B39FC001A39F700D811D1124911D62
:100A9000B29F700D811D1124911D0895453251059D
:100AA00020F4423010F00C945905FB011082CB0168
:100AB0000895BB274A3031F4992322F4BDE2909582
:100AC00081959F4F0C946505BB27FB015527AA27ED
:100AD000880F991FAA1FA41710F0A41B83955051CB
:100AE000B9F7A05DAA3308F0A95DA193009779F743
:100AF000B111B1931192CB010C947E05DC01FC0184
:100B0000672F71917723E1F7329704C07C916D9341
:100B100070836291AE17BF07C8F30895F894FFCFB2
:100B20000320617661696C61626C653A20004E2D2C
:100B30003E456E7465722E582D3E457869740041AD
:100B4000646D696E00456E74657220494453203AA5
:100B50002000494E56414C4944452049442E00410D
:100B60007661696C61626C653A20005269676874ED
:100B70002049442040002046554C4C2C20534F52D5
:040B800052590000C6
:00000001FF
